:020000040800F2
:10000000D0270020E50200083F040008370400085C
:100010003B0400083104000835050008000000001A
:1000200000000000000000000000000025020008A1
:1000300035040008000000008102000841040008A7
:10004000FF020008FF020008FF020008FF0200088C
:10005000FF020008FF020008FF020008FF0200087C
:10006000FF020008FF020008FF020008FF0200086C
:10007000FF020008FF020008FF020008FF0200085C
:10008000FF020008FF020008FF020008FF0200084C
:10009000FF020008FF020008FF020008FF0200083C
:1000A000FF020008FF020008FF020008FF0200082C
:1000B000FF020008FF020008FF020008FF0200081C
:1000C000FF020008FF020008FF020008FF0200080C
:1000D000FF020008FF020008FF020008FF020008FC
:1000E000FF020008FF020008FF020008FF020008EC
:1000F000FF020008FF020008FF020008FF020008DC
:10010000FF020008FF020008FF020008FF020008CB
:10011000FF020008FF020008FF020008FF020008BB
:10012000FF020008FF020008FF020008FF020008AB
:10013000FF020008FF020008FF020008FF0200089B
:1001400000000000000000000000000000000000AF
:10015000FF020008FF020008FF020008FF0200087B
:10016000FF020008FF020008FF020008FF0200086B
:10017000FF020008FF020008FF020008FF0200085B
:10018000FF02000800F002F800F03CF80AA090E836
:10019000000C82448344AAF10107DA4501D100F042
:1001A00031F8AFF2090EBAE80F0013F0010F18BFD3
:1001B000FB1A43F001031847401B0000601B0000BE
:1001C000103A24BF78C878C1FAD8520724BF30C883
:1001D00030C144BF04680C60704700000023002455
:1001E00000250026103A28BF78C1FBD8520728BF47
:1001F00030C148BF0B6070471FB501F007FD1FBD40
:1002000010B510BD00F0CEF81146FFF7F5FF00F075
:1002100061FC00F000F903B4FFF7F2FF03BC00F04B
:100220008BF900002C4B19680868B0E8F04F80F398
:100230000988BFF36F8F4FF0000080F3118870477B
:100240000000000008480068006880F308884FF04C
:10025000000080F3148862B661B6BFF34F8FBFF31E
:100260006F8F00DF00BF00BF08ED00E0DFF80C007B
:10027000016841F470010160704700BF88ED00E043
:10028000EFF30980BFF36F8F134B1A681EF0100F46
:1002900008BF20ED108A20E9F04F106009B44FF03C
:1002A000100080F31188BFF34F8FBFF36F8F01F001
:1002B0005DFA4FF0000080F3118809BC19680868E6
:1002C000B0E8F04F1EF0100F08BFB0EC108A80F3BA
:1002D0000988BFF36F8F704748000020EFF3058057
:1002E000704700000948804709480047FEE7FEE7DD
:1002F000FEE7FEE7FEE7FEE7FEE7FEE7FEE7FEE7D6
:1003000004480549054A064B70470000750400087B
:1003100085010008D0210020D0270020D023002014
:10032000D0230020704700000FB4044910B503AA81
:10033000029800F009F810BC5DF814FB3C000020A6
:100340007047704770477047074B70B50D467B4448
:1003500000F011F80446284600F020F810B14FF0E4
:10036000FF3070BD204670BDF305000001694A1CD6
:1003700002610878704700B58FB0CDE901310021E6
:10038000059105497944CDE903101146684600F00E
:100390002EF80FB000BD0000E5FFFFFF007B00F06E
:1003A00080007047754600F03FF8AE46050069468C
:1003B000534620F00700854618B020B5FFF7A0FF90
:1003C000BDE820404FF000064FF000074FF0000856
:1003D0004FF0000B21F00701AC46ACE8C009ACE8D7
:1003E000C009ACE8C009ACE8C0098D4670472DE9EA
:1003F000F04106460024D6E90170F5688046304693
:1004000003E04146B847641C3046A8470028F8D1AD
:100410002046BDE8F08110B50446AFF300802046C9
:10042000BDE81040FFF7F7BE00487047702100207C
:1004300000BFFEE7704700BFFEE700BFFEE7704762
:1004400010B500BF102080F31188BFF34F8FBFF3AA
:100450006F8F00BF01F0B4FA18B14FF0805004491B
:10046000086000BF002080F3118800BF10BD0000AD
:1004700004ED00E01848006840F470001649086078
:100480001648006820F00100401C1449086000BFB5
:1004900012480068C0F340000028F9D00F484068B7
:1004A00020F003000D49486000BF0C484068C0F3CD
:1004B00081000028F9D10948006809490840074926
:1004C00008600020486008634FF41F008860C8037C
:1004D000014980390860704788ED00E00010024053
:1004E000FFFFF2FE1CB501210F4800F079F9012150
:1004F0004FF4C01000F074F901210C4800F09CFA90
:10050000C020009008208DF8060004208DF805001A
:1005100000208DF8040001208DF80700694604488A
:1005200000F035FA1CBD0000030018000104102C77
:10053000000C014000BFFEE700BF70471CB5044639
:100540000F4951F82400012100F04AF9684600F0F3
:1005500013FA01208DF8070000208DF80400102008
:100560008DF80600074830F81400009004208DF83C
:100570000500054951F82400694600F008FA1CBD41
:10058000280000202000002014000020022800DDA8
:100590007047094931F8101059B1084951F8201035
:1005A000C968054A32F810205140044A52F8202008
:1005B000D16000BFECE70000200000201400002004
:1005C0000349496860F30711014A51607047000010
:1005D000001002400349496860F30A21014A516052
:1005E00070470000001002400349496860F3CD21C4
:1005F000014A51607047000000100240012807D1F5
:100600000749496D21F030013031054A516505E057
:100610000349496D21F03001014A516570470000DE
:1006200000100240052827D2DFE800F0030A111865
:100630001F00134A126861F30002114B1A601CE09C
:100640000F4A126861F310420D4B1A6015E00C4A14
:10065000126861F318620A4B1A600EE0084A126AC7
:1006600061F30002064B1A6207E0054A526A61F321
:100670000002034B5A6200E000BF00BF7047000059
:10068000001002402DE9F04101460027002200251C
:1006900090460023002400F04DF9064626B1012EB5
:1006A00012D0022E43D112E03948406DC0F34020F1
:1006B00038B13748006BC0F3406010B1354808606E
:1006C00001E03548086035E03348086032E03048E2
:1006D0004068C0F300482E484068C0F383422C486D
:1006E0004068C0F341750DB90F2A03D12801401CA1
:1006F000024400E0921CB8F1000F03D12748504398
:10070000086013E022484068C0F3404058B12048D8
:10071000406DC0F30137B81CDFF87CC0BCFBF0F0C3
:100720005043086002E01C485043086002E01A4849
:10073000086000BF00BF16484068C0F303131848A4
:10074000C45C0868E040486011484068C0F3022378
:100750001448C45C4868E040C8600D484068C0F375
:10076000C2231148C45C4868E0408860084840687B
:10077000C0F3007306484068C0F3813040EA830349
:100780000A48C45C8868B0FBF4F00861BDE8F081F9
:1007900000100240006CDC0200127A0000093D00EB
:1007A000161C0008261C00082E1C0008361C000819
:1007B00010B501460020094B03EB1142126801F00D
:1007C0001F040123A3401A4001F01F040123A3408A
:1007D0009A4200D000E0012010BD0000001002404D
:1007E00010B501290DD10E4B03EB1042126800F039
:1007F0001F040123A3401A43094C04EB10431A6061
:100800000CE0074B03EB1042126800F01F040123B9
:10081000A3409A43024C04EB10431A6010BD000041
:100820000010024010B568B91C4B5B6823F480339C
:100830001A4C636023461B6B23F0007303F10073B3
:10084000236317E0154B5B6823F4803303F5803393
:10085000124C6360012805D123465B6823F4003302
:10086000636007E00D4B5B6823F4003303F500334E
:100870000A4C6360094B5B6861F39543074C636006
:100880000C09064B5B6864F35E73044C636023469B
:100890005B6862F3DF73636010BD0000001002400C
:1008A0001348006820F00100401C1149086000BF97
:1008B0000F480068C0F340000028F9D00C48406899
:1008C00020F003000A49486000BF09484068C0F3AF
:1008D00081000028F9D1064800680649084004490B
:1008E00008600020486008634FF41F00886070476C
:1008F00000100240FFFFF2FE0D49496860F301015C
:100900000B4A516000BF00BF00BF00BF00BF00BF67
:1009100000BF00BF00BF00BF00BF00BF00BF00BFDF
:1009200000BF00BF00BF00BF00BF00BF7047000096
:100930000010024002484068C0F381007047000088
:100940000010024070B504460D4600BF80210948E2
:1009500000F043FD0028F9D0A1B2064800F034FDB4
:1009600000BF4021034800F038FD0028F9D02046A0
:1009700070BD0000003801404FF6FF71016000219A
:1009800081710171042141710121C1717047F0B57C
:100990000A461588ABB29579032D01D100241AE0DF
:1009A000957965B9557905F00F045579182D01D160
:1009B000036110E05579282D0DD143610BE0957945
:1009C00005F00805167906F004063543D67906F0D9
:1009D000030645EA0604DDB2A5B1002110E00125B9
:1009E0008D401D405DB105688F000F26BE40B543A8
:1009F000056005688E0004FA06F635430560491C5B
:100A00000829ECD3FF2B15DD1B12002110E0012576
:100A10008D401D405DB145688F000F26BE40B54337
:100A2000456045688E0004FA06F635434560491C6A
:100A30000829ECD3F0BD0000F0B50C46104F07EBD1
:100A40001062C0F30741C0F30725C6B2C5F1200705
:100A5000A7EB010C4FF0FF3707FA0CF3C5F12007A5
:100A60007F1AFB40CB408B4017689F4317602CB127
:100A700006FA01FC176847EA0C071760F0BD000092
:100A80000000014009E00020FFF780FD03A0FFF710
:100A90004BFC4FF47A7000F0EBFDF4E74C45443228
:100AA00020746F67676C652E0D0A000009E0012055
:100AB000FFF76CFD03A0FFF737FC4FF4FA7000F06E
:100AC000D7FDF4E74C45443320746F67676C652E9F
:100AD0000D0A00001CB5032000F084F800F080FB34
:100AE0000020FFF72BFD0120FFF728FDFFF7FAFCA0
:100AF0004FF4165000F032FC18A0FFF715FC00F080
:100B000009FD1848022100230A02CDE9001016A1B0
:100B1000184800F025FF012803D01748FFF704FC10
:100B200002E016A0FFF700FC1E48022100230A0283
:100B3000CDE900101CA11F4800F012FF012803D0CE
:100B40001D48FFF7F1FB02E01CA0FFF7EDFB00F0F2
:100B50000BFD00F0BBFD00201CBD000048656C6C67
:100B60006F2E0A00000000204C4544325F74617310
:100B70006B000000850A0008501C00084C454432F8
:100B8000207461736B207761732063726561746593
:100B900064207375636365737366756C6C792E0D71
:100BA0000A000000040000204C4544335F74617368
:100BB0006B000000AD0A0008A41C00084C4544333B
:100BC000207461736B207761732063726561746553
:100BD00064207375636365737366756C6C792E0D31
:100BE0000A00000000BF00F00702064B19684FF62C
:100BF000FF031940044B0B4343EA0221014B1960E8
:100C000000BF70470CED00E00000FA052DE9F0414F
:100C100005460E461C4807681C480068001D00F089
:100C20002EFC50B91948006890F82C10012088401B
:100C300017490968814316480160681C38B936B104
:100C400012480168091D134800F057FC1AE07C198E
:100C50000E4800684460BC4207D20C480168091D78
:100C60000D48006800F02FFC0CE008480168091DE1
:100C70000A48006800F027FC09480068844201D255
:100C800007480460BDE8F0815C00002048000020B7
:100C9000600000205C010020500000204C0000207B
:100CA0007800002010B5044600F034FC23480068AA
:100CB000401C224908602248006840B9204804606E
:100CC0000846006801280DD100F01EF90AE01D4811
:100CD000006838B91A480068C06AE16A884201D8D9
:100CE0001748046018480068401C1749086094F8C9
:100CF0002C100120884015490968084313490860F1
:100D0000E16A01EB8101124A02EB8100211D00F032
:100D1000F4FB00F029FC0B48006868B10848006843
:100D2000C06AE16A884207D24FF0805009490860E2
:100D3000BFF34F8FBFF36F8F10BD0000580000202E
:100D400048000020640000207400002060000020A3
:100D5000A800002004ED00E010B516E000F0DAFB7A
:100D60000C48C068C468201D00F089FB0A48006870
:100D7000401E0949086009480068401E074908608C
:100D800000F0F2FB204600F00BF804480068002851
:100D9000E4D110BD4801002058000020540000207C
:100DA00010B50446206B00F0FDFB204600F0FAFB76
:100DB00010BD000030B54FF40053174800F0070491
:100DC0002CB1C01D20F00700134C041B1B1B024656
:100DD000124C22600024114D6C60D018083820F0AD
:100DE00007000F4C206000240D4D2D686C600C4DE9
:100DF0002D682C601146441A4C60094C24680C6024
:100E0000084D4C682C60084D4C682C604FF0004435
:100E1000064D2C6030BD00007001002088000020CD
:100E2000900000209800002094000020A4000020E2
:100E300000BFFFF791FF064800680128F9D94FF07D
:100E4000805004490860BFF34F8FBFF36F8FF0E706
:100E5000A800002004ED00E02DE9FF5F81460E466A
:100E60009246DDE90E7B109CAAF10100216B01EB9B
:100E7000800828F0070808F0070008B9012000E002
:100E8000002050B900BF102080F31188BFF34F8FAE
:100E9000BFF36F8F00BF00BFFEE786B1002507E0FC
:100EA000715D04F134004155705D00B902E06D1CC4
:100EB000102DF5D300BF00214320015502E0002092
:100EC00084F83400052F00D30427E762201D00F0CA
:100ED000F7FA04F1180000F0F3FA2461C7F10500F5
:100EE000A06164620020606484F84800494640467E
:100EF000039A00F05FF92060BBF1000F01D0CBF83E
:100F00000040BDE8FF9F000010B5002407E004EB9F
:100F100084010F4A02EB810000F0C5FA641C052C25
:100F2000F5D30C4800F0BFFA0B4800F0BCFA0B48B0
:100F300000F0B9FA0A4800F0B6FA0A4800F0B3FA2D
:100F400004480949086004480849086010BD0000C9
:100F5000A80000200C010020200100203401002006
:100F6000480100205C0100204C00002050000020BF
:100F700010B50146164800E0006803688B42FBD3B9
:100F80000246436813448B4204D143684C682344AF
:100F9000436001460A464B6813440468A34211D1DA
:100FA0000C4C03682468A34208D04B68046864684A
:100FB00023444B6003681B680B6005E0054B1B680E
:100FC0000B6001E003680B60884200D0016010BD37
:100FD000880000209000002009480068006808B9D7
:100FE000012000E0002020B14FF0FF3005490860EB
:100FF00005E003480068C06800680249086070475F
:101000004C000020780000200E480068401C08B901
:10101000012000E0002050B900BF102080F31188AB
:10102000BFF34F8FBFF36F8F00BF00BFFEE700BF5E
:10103000102080F31188BFF34F8FBFF36F8F00BF75
:1010400000BFFEE7080000202DE9F04104464FF004
:10105000000800F083FB5148006808B9FFF7AAFEBA
:101060004F480068204000287ED13CB304F10800BE
:10107000A04223D9083404F0070000B304F00700AD
:10108000C0F108002044A04216D904F00700C0F1C6
:101090000800044404F0070008B9012000E0002023
:1010A00068B900BF102080F31188BFF34F8FBFF3E2
:1010B0006F8F00BF00BFFEE7002400E00024002C7B
:1010C00054D038480068844250D8374E30460568BE
:1010D00001E02E462D686868A04202D228680028E8
:1010E000F7D12E480068854240D0306800F10808EA
:1010F000286830606868001B102819D92F1907F07C
:10110000070008B9012000E0002050B900BF1020FE
:1011100080F31188BFF34F8FBFF36F8F00BF00BF05
:10112000FEE76868001B78606C603846FFF720FFB8
:101130001C4968680968081A1A4908600846006866
:101140001A490968884203D216480068174908609E
:1011500013496868096808436860002028601448DB
:101160000068401C124900E000E0086000F0CCFC80
:1011700008F0070008B9012000E0002050B900BFC6
:10118000102080F31188BFF34F8FBFF36F8F00BF24
:1011900000BFFEE74046BDE8F0810000900000205F
:1011A000A400002094000020880000209800002067
:1011B0009C000020001F4FF080730360001F21F08F
:1011C00001030360001F054B036014380260001F19
:1011D0006FF0020303602038704700000910000818
:1011E00010B5FFF75DFB01210420FFF71BFA00BFDC
:1011F0001B48FFF7DDFA0128FAD101210020FFF793
:1012000011FA00BF0120FFF7D3FA0128FAD1012219
:101210003B210020FFF706FB01210220FFF702FA25
:1012200000BF1920FFF7C4FA0128FAD10020FFF708
:10123000C7F90420FFF7D8F90420FFF7CBF9012004
:10124000FFF7DCF90220FFF757FB00BFFFF772FB47
:101250000228FBD10020FFF7D1F900F003F810BD00
:10126000010024002DE9F047002600240025002776
:10127000A046A146FFF75EFB8246BAF1000F06D0FA
:10128000BAF1010F15D0BAF1020F46D115E02D4881
:10129000406DC0F3402040B12A48006BC0F340606D
:1012A00018B129482949086002E0294827490860FF
:1012B00037E027482549086033E022484068C0F3FA
:1012C000004720484068C0F383441E484068C0F38C
:1012D00041750DB90F2C03D12801401C044400E0D6
:1012E000A41C27B91B4860431849086014E015483E
:1012F0004068C0F3404058B11248406DC0F3013619
:10130000B01C1349B1FBF0F060431049086003E0E2
:101310000F4860430D49086003E00D480B49086021
:1013200000BF00BF07484068C0F303180A4810F820
:1013300008900648006820FA09F004490860BDE8F2
:10134000F087000000100240006CDC024400002026
:1013500000127A0000093D003E1C00081CB504463E
:1013600001211648FFF73CFA012114480B38FFF71A
:1013700037FA6846FFF700FB01208DF807000020D0
:101380008DF8040008208DF806004020009004200D
:101390008DF8050069460A48FFF7F9FA00231A4656
:1013A0002146084800F022F80121064800F062F8C2
:1013B0000121044800F00CF81CBD00000E001800CC
:1013C000000C014000380140C1F308024260704740
:1013D000C26861F34D32C26070470246106808402F
:1013E00008B1012070470020FCE700002DE9F04320
:1013F00085B004460F46904699466846FFF742F985
:101400001848844208D01848844205D017488442BE
:1014100002D01748844201D1029E00E0039E06EBF1
:1014200086004000B0FBF7F50A20B5FBF0F100FBA9
:101430001150052803D20A20B5FBF0F503E00A207D
:10144000B5FBF0F0451CA06865F30F00A060E068F4
:1014500068F30C30E060206969F30D30206105B05D
:10146000BDE8F083003801400060014000640140A5
:1014700000680140C26861F3C302C2607047014660
:101480000A69D1E901309860D1E9010358605068D8
:10149000884201D188685060002008611068401EB1
:1014A00010601068704700F1080141604FF0FF3193
:1014B000816000F10801C160016100210160704795
:1014C00000210161704710B502460B685C1C0CB925
:1014D000106907E002F1080000E0406844682468F1
:1014E0009C42FAD944684C604C68A16088604160B5
:1014F0000A611468641C146010BD42684A609368F5
:101500008B60936859609160086103685B1C03609D
:101510007047000000BF102080F31188BFF34F8F89
:10152000BFF36F8F00BF0E480068401C0C49086075
:1015300008460068012812D10A480068C0B208B9FC
:10154000012000E0002050B900BF102080F3118876
:10155000BFF34F8FBFF36F8F00BF00BFFEE7704731
:101560000800002004ED00E00D48006850B900BFFD
:10157000102080F31188BFF34F8FBFF36F8F00BF30
:1015800000BFFEE706480068401E0549086008469F
:10159000006820B9002080F3118800BF00BF7047A9
:1015A0000800002070B506463546002E44D0083DA0
:1015B0002C46224960680968084008B1012000E013
:1015C000002050B900BF102080F31188BFF34F8F67
:1015D000BFF36F8F00BF00BFFEE7206808B901208E
:1015E00000E0002050B900BF102080F31188BFF345
:1015F0004F8FBFF36F8F00BF00BFFEE70F496068DA
:1016000009680840C0B12068B0B90C496068096831
:101610008843606000F0A2F80949606809680844DE
:10162000074908602046FFF7A3FC06480068401CF5
:101630000449086000F068FA70BD0000A4000020B2
:1016400094000020A000002000204FF0E02108615D
:101650008861064800684FF47A71B0FBF1F0401ED3
:101660004FF0E021486107200861704744000020E6
:1016700070B504460025D4B11248006808B90120AD
:1016800000E0002050B900BF102080F31188BFF3A4
:101690004F8FBFF36F8F00BF00BFFEE700F05EF813
:1016A00000212046FFF7B2FA00F02EFA05463DB9B8
:1016B0004FF0805004490860BFF34F8FBFF36F8F26
:1016C00070BD00008400002004ED00E01CB51B4844
:1016D00000210B468022CDE9001019A11A4800F024
:1016E0003FF90446012C15D100BF102080F311886A
:1016F000BFF34F8FBFF36F8F00BF4FF0FF30134921
:10170000086001201249086000201249086000F0BA
:1017100073F810E0601C08B1012000E0002050B90F
:1017200000BF102080F31188BFF34F8FBFF36F8F7E
:1017300000BF00BFFEE7084800681CBD7C00002019
:1017400049444C4500000000310E0008780000209C
:10175000640000205C000020800000200248006837
:10176000401C014908607047840000201D48006843
:1017700018B101201C49086032E000201A490860B5
:101780001A480068B0FA80F0C0F11F0101EB810037
:10179000174A52F8200008B1012000E0002050B99B
:1017A00000BF102080F31188BFF34F8FBFF36F8FFE
:1017B00000BF00BFFEE701EB81020D4B03EB82008F
:1017C00042685268426000F108024368934202D1C5
:1017D0004268526842604268D268064B1A6000BF95
:1017E00070470000840000206C0000206000002092
:1017F000A8000020480000201CB55248006852494B
:10180000884201D0012000E0002050B900BF102024
:1018100080F31188BFF34F8FBFF36F8F00BF00BFFE
:10182000FEE7484800684849491E884201D0012027
:1018300000E0002050B900BF102080F31188BFF3F2
:101840004F8FBFF36F8F00BF00BFFEE73F490846D1
:1018500000780190FF200A4610700846007800903A
:101860009DF8000000F0F0009DF80020904201D1AA
:10187000012000E0002050B900BF102080F3118843
:10188000BFF34F8FBFF36F8F00BF00BFFEE79DF820
:10189000000000F010002E4A107007202D4A106042
:1018A00009E02C480068401E2A4A10609DF800009C
:1018B0004006000E00909DF8000000F08000802897
:1018C000EFD024480068C0F10700042801D10120AE
:1018D00000E0002050B900BF102080F31188BFF352
:1018E0004F8FBFF36F8F00BF00BFFEE7194800683E
:1018F0000002184A10601046008800F4E060106092
:10190000124A019810700F482030006840F47000AF
:101910000C49203108600846006840F070400860BB
:10192000FFF792FE00200C490860FEF79FFC0B4871
:10193000006840F0404009490860FEF783FC002041
:101940001CBD000000ED00E071C20F4100E400E0AA
:101950000C000020100000200800002034EF00E000
:101960002DE9FF4F85B0804689461746DDE912AB69
:10197000B800FFF769FB064656B14C20FFF764FB41
:1019800004460CB1266304E03046FFF70BFE00E08E
:1019900000247CB10020CDE900ABCDE902403A46FD
:1019A00049464046089BFFF757FA2046FFF77AF969
:1019B000012501E04FF0FF35284609B0BDE8F08F62
:1019C0002DE9F0414FF000084448006800287CD120
:1019D00043480068451C4248056015BB4148006803
:1019E000006808B9012000E0002050B900BF1020B5
:1019F00080F31188BFF34F8FBFF36F8F00BF00BF1D
:101A0000FEE73848076838480068364908603648B5
:101A1000076036480068401C34490860FFF7DCFA6C
:101A200000BF3348006885423CD300BF2D480068A2
:101A3000006808B9012000E0002020B14FF0FF301D
:101A40002B4908602DE027480068C068C4686668B4
:101A5000B54202D22648066023E0201DFFF70FFDA5
:101A6000A06A18B104F11800FFF709FD94F82C10D2
:101A7000012088401F49096808431E490860E16A3F
:101A800001EB81011C4A02EB8100211DFFF735FDAE
:101A90001A49E06A0968C96A8842C7D34FF0010849
:101AA000C4E700BF15480068C06A00EB8000124917
:101AB00051F82000012801D94FF0010810480068B2
:101AC00008B14FF0010805E0FFE70E480068401C30
:101AD0000C4908604046BDE8F08100008400002009
:101AE0005C0000204C00002050000020700000200E
:101AF0007800002060000020A8000020480000209E
:101B00006C0000206800002070B5002400263648D4
:101B1000006850B900BF102080F31188BFF34F8FC9
:101B2000BFF36F8F00BF00BFFEE7FFF7F3FC2E4847
:101B30000068401E2C4908600846006800284FD104
:101B40002A48006800284BD024E02948C068C468AF
:101B500004F11800FFF793FC201DFFF790FC94F8A8
:101B60002C10012088402349096808432149086056
:101B7000E16A01EB8101204A02EB8100211DFFF7A0
:101B8000BCFC1E49E06A0968C96A884202D3012088
:101B90001B4908601648006808B9012000E00020D1
:101BA0000028D2D00CB1FFF717FA1648056865B1C6
:101BB00000BFFFF705FF10B10120114908606D1E3D
:101BC000002DF6D100200F4908600D48006838B19B
:101BD000012630070C490860BFF34F8FBFF36F8FAA
:101BE000FFF7C2FC304670BD840000205800002082
:101BF0003401002060000020A800002048000020E0
:101C00006C0000206800002004ED00E04FF0407000
:101C1000E1EE100A70470000000000000000010221
:101C20000304060708090000000001020304000085
:101C300000000102030402040608020C0810000060
:101C4000000000000000010203040607080900006C
:101C50004C454432207461736B20636F756C642053
:101C60006E6F7420626520637265617465642061C3
:101C7000732074686572652077617320696E73756F
:101C80006666696369656E742068656170206D655C
:101C90006D6F72792072656D61696E696E672E0D68
:101CA0000A0000004C454433207461736B20636F5D
:101CB000756C64206E6F7420626520637265617458
:101CC0006564206173207468657265207761732094
:101CD000696E73756666696369656E7420686561AF
:101CE00070206D656D6F72792072656D61696E69C6
:101CF0006E672E0D0A000000181D0008000000206D
:101D0000A8000000C0010008C01D0008A8000020B5
:101D100028270000DC01000800000000000000008F
:101D2000AAAAAAAA000000000000000000140140B6
:101D30000014014000140140002000400080000019
:101D4000050018000500180005001800000000003C
:101D500000000000000000000100000000127A00F6
:101D60000000000000000000000000000000000073
:101D70000000000000000000000000000000000063
:101D80000000000000000000000000000000000053
:101D9000000000000000000004000000000000003F
:101DA0000000000000000000000000000000000033
:101DB0000000000000000000000000000000000023
:040000050800018569
:00000001FF
